:040000004EEF05F0CA
:1008000000566F6C74616A653A200000066EF00E47
:100810008116F00E9316939C939A93988A9C8A9AC9
:100820008A985CEC05F0300EC9EC04F0050E33EC50
:1008300005F0300EC9EC04F0010E33EC05F0320E79
:10084000C9EC04F0E8EC04F00009D8A4FBD7E8EC0C
:1008500004F00009D8A4FBD70650C9EC04F0E8EC7A
:1008600004F00009D8A4FBD7080EC9EC04F0E8ECAA
:1008700004F00009D8A4FBD70F0EC9EC04F0E8EC93
:1008800004F00009D8A4FBD7010EC9EC04F0E8EC91
:1008900004F00009D8A4FBD7040EC9EC04F0E8EC7E
:1008A00004F00009D8A4FBD7800E81EC04F01200FC
:1008B000280E06EC04F0E8EC04F00009D8A4FBD7FD
:1008C000060EC9EC04F00C0EC9EC04F0570E016ED4
:1008D000000E1FEC05F0000E55EC05F0086E080E3A
:1008E000076E000E81EC04F0010E036E080E046E1C
:1008F00005EC05F0400E81EC04F00850AAEC04F081
:10090000EED7056EF00E9316F00E81160550026EAE
:10091000036A028E040E046E033403320232042E84
:10092000FBD702500F0B81128A9C8A9A60EC05F06B
:100930008A8860EC05F08A98F00E811605500F0B3E
:10094000811260EC05F08A8860EC05F08A980F0E41
:1009500093121200026EF00E9316F00E81160238FA
:100960000F0B0F0B81128A8A8A9C60EC05F08A8833
:1009700060EC05F08A98F00E811602500F0B811280
:1009800060EC05F08A8860EC05F08A980F0E9312EF
:100990001200026EF00E9316F00E811602380F0B45
:1009A0000F0B81128A9C8A9A60EC05F08A8860ECB1
:1009B00005F08A98F00E811602500F0B811260EC40
:1009C00005F08A8860EC05F08A980F0E93121200E9
:1009D0008A8C8A9A60EC05F08A8860EC05F081A622
:1009E0000AD08A9860EC05F08A8860EC05F08A9855
:1009F0008A9C010E12008A9860EC05F08A8860ECEF
:100A000005F08A988A9C000E12000FD0E8EC04F0E2
:100A10000009D8A4FBD703C0F6FF04C0F7FF080005
:100A2000F550AAEC04F0034A042A03C0F6FF04C000
:100A3000F7FF0800F5500009D8B41200E7D7026E9E
:100A4000A6B2FED702C0A9FF01C0A8FFA69EA68439
:100A5000F29E550EA76EAA0EA76EA682F28EA694DF
:100A6000A6A21200FDD7026E0D0E016EFC0EE82E3E
:100A7000FED7012EFCD7022EF7D71200016EFA0E18
:100A800000F0E82EFDD7012EFAD71200016E030EFA
:100A9000E82EFED700F0012EFAD71200000EF86EF5
:100AA000080EF76E000158EF04F0016E01C0A9FFB7
:100AB000A69EA680A8501200B40E3EEC05F01200CF
:080AC000780E46EC05F012006F
:020000040020DA
:08000000FFFFFFFFFFFFFFFF00
:020000040030CA
:0E000000240E191EFF8181FF0FC00FE00F407C
:00000001FF
