:04000000F3EF05F025
:1008000000436F72726563746F000000280ED4ECB1
:1008100004F08DEC05F00009D8A4FBD7060E6EECB1
:1008200005F00C0E6EEC05F0000E096E000E086E61
:10083000000E936EF00E956E9290370E016E000EC4
:10084000C4EC05F0000EFAEC05F00A6E8C808C9278
:100850008C948C9683A80BD0370E4FEC05F0370E96
:100860000B6E010E0824086E000E0920096E83AA83
:1008700003D0380E4FEC05F083AC03D0390E4FECAB
:1008800005F083AE03D02F0E4FEC05F0410E076E3E
:10089000EE0EE82EFED7072EFCD700D08C908C826F
:1008A0008C948C96410E076EEE0EE82EFED7072E26
:1008B000FCD700D083A803D0340E4FEC05F083AAF8
:1008C00003D0350E4FEC05F083AC03D0360E4FEC61
:1008D00005F083AE03D0580E4FEC05F0410E076EC5
:1008E000EE0EE82EFED7072EFCD700D08C908C920F
:1008F0008C848C96410E076EEE0EE82EFED7072EE6
:10090000FCD700D083A803D0310E4FEC05F083AAAA
:1009100003D0320E4FEC05F083AC03D0330E4FEC16
:1009200005F083AE03D02D0E4FEC05F0410E076E9F
:10093000EE0EE82EFED7072EFCD700D08C908C92BE
:100940008C948C86410E076EEE0EE82EFED7072E95
:10095000FCD700D083A803D04F0E4FEC05F083AA3C
:1009600003D0300E4FEC05F083AC03D03D0E4FECBE
:1009700005F083AE03D02B0E4FEC05F0410E076E51
:10098000EE0EE82EFED7072EFCD700D00B500A182B
:10099000D8A45CD7000E26EC05F0010E036E080EFD
:1009A000046EAAEC05F052D7066EF00E8116F00E1A
:1009B0009316939C939A93988A9C8A9A8A9801ECAE
:1009C00006F0300E6EEC05F0050ED8EC05F0300E9A
:1009D0006EEC05F0010ED8EC05F0320E6EEC05F071
:1009E0008DEC05F00009D8A4FBD78DEC05F00009CB
:1009F000D8A4FBD706506EEC05F08DEC05F000098D
:100A0000D8A4FBD7080E6EEC05F08DEC05F00009BC
:100A1000D8A4FBD70F0E6EEC05F08DEC05F00009A5
:100A2000D8A4FBD7010E6EEC05F08DEC05F00009A3
:100A3000D8A4FBD7040E6EEC05F08DEC05F0000990
:100A4000D8A4FBD7800E26EC05F01200056EF00E40
:100A50009316F00E81160550026E036A028E040E84
:100A6000046E033403320232042EFBD702500F0B04
:100A700081128A9C8A9A05EC06F08A8805EC06F0B9
:100A80008A98F00E811605500F0B811205EC06F0C6
:100A90008A8805EC06F08A980F0E93121200026EF7
:100AA000F00E9316F00E811602380F0B0F0B811209
:100AB0008A8A8A9C05EC06F08A8805EC06F08A98FA
:100AC000F00E811602500F0B811205EC06F08A8899
:100AD00005EC06F08A980F0E93121200026EF00ECB
:100AE0009316F00E811602380F0B0F0B81128A9CA1
:100AF0008A9A05EC06F08A8805EC06F08A98F00ED2
:100B0000811602500F0B811205EC06F08A8805EC65
:100B100006F08A980F0E931212008A8C8A9A05ECBE
:100B200006F08A8805EC06F081A60AD08A9805ECC2
:100B300006F08A8805EC06F08A988A9C010E12005D
:100B40008A9805EC06F08A8805EC06F08A988A9C5B
:100B5000000E12000FD08DEC05F00009D8A4FBD7D1
:100B600003C0F6FF04C0F7FF0800F5504FEC05F096
:100B7000034A042A03C0F6FF04C0F7FF0800F5503B
:100B80000009D8B41200E7D7026EA6B2FED702C0A1
:100B9000A9FF01C0A8FFA69EA684F29E550EA76ECF
:100BA000AA0EA76EA682F28EA694A6A21200FDD768
:100BB000026E0D0E016EFC0EE82EFED7012EFCD744
:100BC000022EF7D71200016EFA0E00F0E82EFDD7C4
:100BD000012EFAD71200016E030EE82EFED700F0A8
:100BE000012EFAD71200000EF86E080EF76E000103
:100BF00006EF04F0016E01C0A9FFA69EA680A850D2
:100C000012004B0EE3EC05F01200780EEBEC05F051
:020C10001200D0
:020000040020DA
:08000000FFFFFFFFFFFFFFFF00
:020000040030CA
:0E000000240E191EFF8181FF0FC00FE00F407C
:00000001FF
