:0400000067EF05F0B1
:10080000004B68616C6564204D616764790000206D
:100810002044656570426C756500000070EC04F062
:100820007CEC05F0010E036E010EADEC04F0010E40
:10083000056E080E066E0CEC05F0010E036E020E3E
:10084000ADEC04F00F0E056E080E066E0CEC05F014
:10085000000E0E6E000E0D6E020E0C6E860E0B6EEE
:10086000990EE82EFED70B2EFCD70C2EFAD700F0EF
:100870006EEC05F00D4A0E2A0EBE48EF04F00E5045
:1008800009E1040E0D5CD8A048EF04F04AEF04F033
:100890002CEF04F0000E106E000E0F6E020E0C6EA8
:1008A000860E0B6E990EE82EFED70B2EFCD70C2E63
:1008B000FAD700F075EC05F00F4A102A10BE6AEF67
:1008C00004F0105009E1040E0F5CD8A06AEF04F0A8
:1008D0006CEF04F04EEF04F028EF04F000EF00F0AE
:1008E000000E936E939A9398000EDEEC04F0270EA0
:1008F000036EF50EE82EFED7032EFCD700F0A60EF1
:10090000E82EFED700D0030E5BEC05F0070E036E59
:100910007D0EE82EFED7032EFCD700F0030E5BEC15
:1009200005F0320EE82EFED7030E5BEC05F0020E4A
:100930005BEC05F0020E5BEC05F0080E5BEC05F0DD
:10094000000E5BEC05F00C0E5BEC05F0000E5BECB2
:1009500005F0060E5BEC05F01200046E0404D8A44A
:10096000B4EF04F0B6EF04F0C5EF04F003507F0FCE
:10097000076E07380F0B066E07500F0B056E0650FB
:100980005BEC05F005505BEC05F0020E0418D8A4F2
:10099000CCEF04F0CEEF04F0DDEF04F00350BF0F16
:1009A000076E07380F0B066E07500F0B056E0650CB
:1009B0005BEC05F005505BEC05F01200016E01A048
:1009C000E4EF04F0E6EF04F0E9EF04F08180EAEFF1
:1009D00004F0819001A2EFEF04F0F1EF04F0F4EFE6
:1009E00004F08182F5EF04F0819201A4FAEF04F0A3
:1009F000FCEF04F0FFEF04F0818400EF05F0819438
:100A000001A605EF05F007EF05F00AEF05F0818676
:100A10000BEF05F081961200000E0A6E000E096EB3
:100A200022EF05F009500524076E0A500620086ED3
:100A300007C0F6FF08C0F7FF0800F55037EC05F0D7
:100A4000094A0A2A09500524076E0A500620086E32
:100A500007C0F6FF08C0F7FF0800F5500009D8A44A
:100A600034EF05F036EF05F012EF05F01200046EDA
:100A700004500F0B026E0450F00B036E818A033892
:100A80000F0BDEEC04F08188A60EE82EFED700D016
:100A90008198A60EE82EFED700D00250DEEC04F0BE
:100AA0008188A60EE82EFED700D08198A60EE82EEB
:100AB000FED700D01200026E819A0250DEEC04F0E4
:100AC0008188A60EE82EFED700D081981200000E75
:100AD000F86E080EF76E00010EEF04F0010E5BECED
:100AE00005F00C0E5BEC05F01200010E5BEC05F05E
:100AF000080E5BEC05F01200000E5BEC05F0010E39
:060B00005BEC05F01200A1
:020000040020DA
:08000000FFFFFFFFFFFFFFFF00
:020000040030CA
:0E000000018E191EFF8181FF0FC00FE00F401F
:00000001FF
