:040000000BEF00F012
:100008001382FACF02F0FBCF03F00DED00F08AEF78
:1000180000F00600E9CF04F0EACF05F0E1CF06F0E2
:10002800E2CF07F0D9CF08F0DACF09F0F3CF0AF022
:10003800F4CF0BF0F6CF0CF0F7CF0DF0F8CF0EF0B1
:10004800F5CF0FF0F2A226D0000E116E000E106E42
:1000580011BE06D011501DE10A0E105CD8B019D09F
:100068008082C30E016ECD0EE82EFED7012EFCD77E
:1000780000F08092C30E016ECD0EE82EFED7012E41
:10008800FCD700F0104A112A11BEEAD7115001E13D
:10009800E3D7F2920FC0F5FF0EC0F8FF0DC0F7FFCF
:1000A8000CC0F6FF0BC0F4FF0AC0F3FF09C0DAFF6B
:1000B80008C0D9FF07C0E2FF06C0E1FF05C0EAFF9C
:1000C80004C0E9FF03C0FBFF02C0FAFF139211004E
:1000D8000F0EC16E929092929380F288F19CF292E8
:1000E800D09EF28CF28E8080C30E126ECD0EE82E5A
:1000F800FED7122EFCD700F08090C30E126ECD0EE4
:10010800E82EFED7122EFCD700F0EDD713901392ED
:0601180000016CEF00F095
:020000040020DA
:08000000FFFFFFFFFFFFFFFF00
:020000040030CA
:0E000000040C191EFF8381FF0FC00FE00F409C
:00000001FF
