:04000000A1EF3FF03D
:107F1C00070E036E7D0EE82EFED7032EFCD700F065
:107F2C0012003F0006005B004F0066006D007D00F4
:107F3C0007007F0067002E0EF66E7F0EF76E000EA8
:107F4C00F86E00EE1CF010EE14F00900F5CFEEFF09
:107F5C00E550E150FAE10001B4EF3FF0C168000ECA
:107F6C00936E000E956E010E946E000E1B6E000E3D
:107F7C001A6E000E196E000E186E20EE1CF010EE2C
:107F8C0004F0130EDBCFE3FFE806FCE2130E026EE7
:107F9C00880E016E8EEC3FF0D8901834D96E1934DF
:107FAC00DA6E040ED926000EDA22DF508A6ED890D3
:107FBC001A34D96E1B34DA6E040ED926000EDA226E
:107FCC00DF508C6E82A0E2D7010E1A241A6E000EBE
:107FDC001B201B6E0A0E1A181B10D8A4D7D7010E23
:107FEC001824186E000E1920196E000E1B6E000E50
:047FFC001A6ECCD756
:020000040020DA
:08000000FFFFFFFFFFFFFFFF00
:020000040030CA
:0E000000040C191EFF8381FF0FC00FE00F409C
:00000001FF
