:040000009FEF3FF03F
:107F3E000001A2EF3FF0000E936E000E816EC30E95
:107F4E00016ECD0EE82EFED7012EFCD700F0010EED
:107F5E00816EC30E016ECD0EE82EFED7012EFCD71C
:107F6E0000F0020E816EC30E016ECD0EE82EFED70E
:107F7E00012EFCD700F0040E816EC30E016ECD0EE5
:107F8E00E82EFED7012EFCD700F0080E816EC30E30
:107F9E00016ECD0EE82EFED7012EFCD700F0100E8E
:107FAE00816EC30E016ECD0EE82EFED7012EFCD7CC
:107FBE0000F0200E816EC30E016ECD0EE82EFED7A0
:107FCE00012EFCD700F0400E816EC30E016ECD0E59
:107FDE00E82EFED7012EFCD700F0800E816EC30E68
:107FEE00016ECD0EE82EFED7012EFCD700F000EF6D
:027FFE0000F091
:020000040020DA
:08000000FFFFFFFFFFFFFFFF00
:020000040030CA
:0E000000000C1F1FFF8381FF0FC00FE00F4099
:00000001FF
