:040000000BEF00F012
:100008003C82FACF29F0FBCF2AF00DED00F0B3EFD8
:1000180000F00600E9CF2BF0EACF2CF0E1CF2DF06D
:10002800E2CF2EF0D9CF2FF0DACF30F0F3CF31F086
:10003800F4CF32F0F6CF33F0F7CF34F0F8CF35F015
:10004800F5CF36F0F2A216D0010E3924396E000E23
:100058003A203A6E0A0E39183A10D8A40AD0010E7E
:100068003724376E000E3820386E000E3A6E000EB8
:10007800396EF292F0A016D0010E3924396E000EB6
:100088003A203A6E0A0E39183A10D8A40AD0010E4E
:100098003724376E000E3820386E000E3A6E000E88
:1000A800396EF090F0A216D0010E3924396E000E88
:1000B8003A203A6E0A0E39183A10D8A40AD0010E1E
:1000C8003724376E000E3820386E000E3A6E000E58
:1000D800396EF09236C0F5FF35C0F8FF34C0F7FF2F
:1000E80033C0F6FF32C0F4FF31C0F3FF30C0DAFF8F
:1000F8002FC0D9FF2EC0E2FF2DC0E1FF2CC0EAFFC0
:100108002BC0E9FF2AC0FBFF29C0FAFF3C9211006F
:10011800C168000E956E000E946E9380938293844E
:10012800F288F292F28CF28EF19CD09EF086F088E2
:10013800D8903734D96E3834DA6E010ED926000ECD
:10014800DA22DF508B6ED8903934D96E3A34DA6EB1
:10015800150ED926000EDA22DF508C6EE9D73B6ADD
:100168003A6A396A386A376A9A0EF66E010EF76E7D
:10017800000EF86E00EE01F010EE28F00900F5CF41
:10018800EEFFE550E150FAE13C903C9200018CEF23
:1001980000F07F000C00B6009E00CC00DA00FA00E8
:1001A8000E00FE00DE003F0006005B004F00660008
:0A01B8006D007D0007007F00670066
:020000040020DA
:08000000FFFFFFFFFFFFFFFF00
:020000040030CA
:0E000000040C191EFF8381FF0FC00FE00F409C
:00000001FF
