:0400000069EF3FF075
:107ED20000016CEF3FF0C168000E936E010E956ECB
:107EE200000E816E8350D8A40AD03F0E8A6EE40E33
:107EF200016E440EE82EFED7012EFCD77DD08304FE
:107F0200D8A40AD0060E8A6EE40E016E440EE82E44
:107F1200FED7012EFCD770D0020E8318D8A40AD047
:107F22005B0E8A6EE40E016E440EE82EFED7012E21
:107F3200FCD762D0030E8318D8A40AD04F0E8A6EE3
:107F4200E40E016E440EE82EFED7012EFCD754D06B
:107F5200040E8318D8A40AD0660E8A6EE40E016E4F
:107F6200440EE82EFED7012EFCD746D0050E83180C
:107F7200D8A40AD06D0E8A6EE40E016E440EE82E6D
:107F8200FED7012EFCD738D0060E8318D8A40AD00B
:107F92007D0E8A6EE40E016E440EE82EFED7012E8F
:107FA200FCD72AD0070E8318D8A40AD0070E8A6EEF
:107FB200E40E016E440EE82EFED7012EFCD71CD033
:107FC200080E8318D8A40AD07F0E8A6EE40E016EC2
:107FD200440EE82EFED7012EFCD70ED0090E8318D0
:107FE200D8A400EF00F06F0E8A6EE40E016E440E0C
:0E7FF200E82EFED7012EFCD700D000EF00F0E5
:020000040020DA
:08000000FFFFFFFFFFFFFFFF00
:020000040030CA
:0E000000000C1F1FFF8381FF0FC00FE00F4099
:00000001FF
