:0400000030EF3DF0B0
:107A6000000139EF3DF0016E01C0ADFFACB2120074
:107A7000FDD7720ED36E800E2E6E250E2F6E000E69
:107A8000306E000E316EA6EC3DF0410E33EC3DF051
:107A9000030E026EE80E016E4FEC3DF0F6D7000EBD
:107AA000046E000E036E0FD0000E066E000E056E03
:107AB000065007E1510E055CD8B003D0054A062AEE
:107AC000F7D7034A042A0350015C04500258D8A097
:107AD0001200EAD7000E126E8E0E116E0CAE11D08F
:107AE0000C1E0B1E0A1E096C000E0A220B220C2211
:107AF000010E126E06D0D8900C320B320A320932C7
:107B0000112A000E09140D6E000E0A140E6E000EDE
:107B10000B140F6EFF0E0C14106E0D500E100F1084
:107B20001010D8A4E8D709C001F00AC002F00BC0B9
:107B300003F011C004F012C005F0E6EC3DF001C006
:107B400009F002C00AF003C00BF01200949C2EC092
:107B500009F02FC00AF030C00BF031C00CF06AEC15
:107B60003DF009C016F00AC017F00BC018F0240E43
:107B7000136EF40E146E470E156E3DEC3EF013C0FE
:107B800022F014C023F015C024F0000E256E800EE4
:107B9000266EBF0E276E2AEC3FF022C032F023C0C3
:107BA00033F024C034F032C001F033C002F034C0EE
:107BB00003F0B0EC3EF00150AF6EAC9EAC9CAC8AD2
:107BC000AC98AC94B896900EAB6E12000450D8B43A
:107BD00005D0015002100310D8A40CD0000E016E85
:107BE000000E026E000E036E1200042AD8900332BB
:107BF00002320132000E0114066E000E0214076EEE
:107C0000FE0E0314086E065007100810D8B40CD0EE
:107C1000ECD7042A010E0126000E0222000E0322D8
:107C2000D890033202320132000E0114066E000EAB
:107C30000214076EFF0E0314086E0650071008109A
:107C4000D8B406D0E6D70406D890013602360336FB
:107C500002BE03D0020E0460F6D704A0029ED890A4
:107C60000432045003120550D8A4038E01C001F061
:107C700002C002F003C003F0120015C019F01A6A26
:107C80001B6A1434193601E31A801950206E2050F3
:107C9000D8A407D0000E136E000E146E000E156EE1
:107CA000120018C019F01A6A1B6A1734193601E35A
:107CB0001A801950216E2150D8A407D0000E136EDF
:107CC000000E146E000E156E1200000E1D6E000EDA
:107CD0001E6E000E1F6E2150890F205E15C021F010
:107CE0001850211A800E2116148EFF0E1316FF0E47
:107CF0001416000E1516178EFF0E1616FF0E171609
:107D0000000E1816180E1C6ED8901D361E361F3623
:107D10001650135C1750145818501558D8A007D097
:107D20001650135E1750145A1850155A1D80D890CB
:107D30001336143615361C2EE7D71DC001F01EC0B1
:107D400002F01FC003F020C004F021C005F0E6ECF3
:107D50003DF001C013F002C014F003C015F0120092
:107D600003C005F0066A076A0234053601E306809F
:107D700005500F6E0F50D8A409D0000E016E000EF2
:107D8000026E000E036E000E046E1200170E056EDA
:107D900001C006F002C007F003C008F00528096E14
:107DA00004D0D890083207320632092EFAD706508E
:107DB0000A6E028EFF0E0116FF0E0216000E03164B
:107DC00001500B6E02500C6E03500D6E0E6A8E0E3B
:107DD0000F5E0FAE16D00F50800A8F0FD8B009D0AB
:107DE000000E016E000E026E000E036E000E046E99
:107DF0001200D8900E320D320C320B320F3EF9D7F2
:107E000015D0170E0F640FD0000E016E000E026E1B
:107E1000000E036E000E046E1200D8900B360C3666
:107E20000D360E360F060F50D8A4F7D70A50D8B427
:107E300008D00E1E0D1E0C1E0B6C000E0C220D2207
:107E40000E220BC001F00CC002F00DC003F00EC0FA
:107E500004F0120024C028F0296A2A6A2334283644
:107E600001E3298028502D6E27C028F0296A2A6A4C
:107E70002634283601E3298028502C6E2D50D8B4A2
:107E80000BD02C502D5CD8B00ED02D5000082C24D7
:107E9000286E180E286407D025C022F026C023F0D3
:107EA00027C024F012002C50D8B40BD02D502C5CDD
:107EB000D8B00ED02C5000082D24286E180E28643F
:107EC00007D022C022F023C023F024C024F01200E7
:107ED000060E2B6E24BE2B8E27BE2B8C238EFF0E00
:107EE0002216FF0E2316000E2416268EFF0E2516D0
:107EF000FF0E2616000E27162C502D5CD8B01BD076
:107F0000D8902536263627362C062D502C18D8B476
:107F10000DD02B062BC028F0070E2816D8B406D09B
:107F2000EFD7D8902432233222322D2A2C502D180C
:107F3000D8B41FD0F6D72D502C5CD8B01AD0D8901A
:107F40002236233624362D062D502C18D8B40DD0C9
:107F50002B062BC028F0070E2816D8B406D0EFD772
:107F6000D8902732263225322C2A2C502D18D8A40E
:107F7000F7D72BAE0CD0FF0E221AFF0E231AFF0EDE
:107F8000241A010E2226000E2322000E24222BACDE
:107F90000CD0FF0E251AFF0E261AFF0E271A010E0F
:107FA0002526000E2622000E2722000E2B6E2250C0
:107FB0002526235026222450272227AE0ED0FF0E3E
:107FC000251AFF0E261AFF0E271A010E2526000E6F
:107FD0002622000E2722010E2B6E25C001F026C09E
:107FE00002F027C003F02DC004F02BC005F0E6EC32
:107FF0003DF001C022F002C023F003C024F01200C3
:020000040020DA
:08000000FFFFFFFFFFFFFFFF00
:020000040030CA
:0E00000000051F1FFF8385FF0FC00FE00F409C
:00000001FF
