:0400000088EF3FF056
:107F100000018BEF3FF0000E936E000E956E000E89
:107F2000056E000E046E000E036E000E026E000E53
:107F30008A6E000E056E000E046E05BE06D02C0E75
:107F4000045C010E0558D8B015D0010E816E8380F7
:107F5000040E016E3E0EE82EFED7012EFCD7839054
:107F6000040E016E3E0EE82EFED7012EFCD7044A09
:107F7000052AE3D7000E056E000E046E05BE06D07E
:107F80002C0E045C010E0558D8B017D0020E816E7D
:107F90008380040E016EE40EE82EFED7012EFCD77E
:107FA00000D08390040E016EE40EE82EFED7012E61
:107FB000FCD700D0044A052AE1D7000E056E000E5A
:107FC000046E05BE06D02C0E045C010E0558D8B018
:107FD000B0D7040E816E8380060E016E300EE82E3F
:107FE000FED7012EFCD700D08390060E016E300E16
:107FF000E82EFED7012EFCD700D0044A052AE1D78F
:020000040020DA
:08000000FFFFFFFFFFFFFFFF00
:020000040030CA
:0E000000000C1F1FFF8381FF0FC00FE00F4099
:00000001FF
