:04000000B9EF3FF025
:107F5E003F0006005B004F0066006D007D000700CD
:107F6E007F006F005E0EF66E7F0EF76E000EF86EDF
:107F7E0000EE16F010EE14F00900F5CFEEFFE5500E
:107F8E00E150FAE10001CCEF3FF07F0EC16E20EE22
:107F9E0016F010EE02F0130EDBCFE3FFE806FCE264
:107FAE00010E956E000E936E000E816E8350D8A456
:107FBE000AD002C08AFFC30E016ECD0EE82EFED788
:107FCE00012EFCD714D08304D8A40AD0060E8A6ED4
:107FDE00C30E016ECD0EE82EFED7012EFCD707D0B4
:107FEE00C30E016ECD0EE82EFED7012EFCD700F08B
:027FFE00DDD7CD
:020000040020DA
:08000000FFFFFFFFFFFFFFFF00
:020000040030CA
:0E000000000C1F1FFF8381FF0FC00FE00F4099
:00000001FF
