:04000000B8EF3FF026
:107F70000001D2EF3FF0016E0C0EBD129494CA9432
:107F800001C0CBFFCA841200016E0150FB0BCA6E08
:107F9000000ECC6E9E9201AE02D09D8201D09D92C9
:107FA000CA841200000E946EFE0E076E0750C4ECD9
:107FB0003FF0680EBBEC3FF0010E026E380E016E12
:107FC000E3EC3FF0F9D701C003F002C004F0060E65
:107FD000D89003360436E82EFBD703C005F004C062
:107FE00006F006C0BEFF05C003F0D8900332D8905B
:107FF0000332300E0316BD50CF0B0310BD6E1200BE
:020000040020DA
:08000000FFFFFFFFFFFFFFFF00
:020000040030CA
:0E000000240E191EFF8181FF0FC00FE00F407C
:00000001FF
