:040000004FEF05F0C9
:10080000005465636E6F6C6F6769636F00566F6C41
:1008100074616A653A2000566F6C7473000058EC7E
:1008200004F056EC05F0010E036E010E95EC04F099
:10083000010E056E080E066EF4EC04F0020E0C6E4E
:10084000860E0B6E990EE82EFED70B2EFCD70C2EC3
:10085000FAD700F0010E036E020E95EC04F00D0EB7
:10086000056E080E066EF4EC04F0090E036E020E1F
:1008700095EC04F0330E1FEC05F00B0E036E020E28
:1008800095EC04F0170E056E080E066EF4EC04F0FD
:10089000020E0C6E860E0B6E990EE82EFED70B2EF6
:1008A000FCD70C2EFAD700F054EF04F000EF00F064
:1008B000000E936E939A9398000EC6EC04F0270EE8
:1008C000036EF50EE82EFED7032EFCD700F0A60E21
:1008D000E82EFED700D0030E43EC05F0070E036EA2
:1008E0007D0EE82EFED7032EFCD700F0030E43EC5E
:1008F00005F0320EE82EFED7030E43EC05F0020E93
:1009000043EC05F0020E43EC05F0080E43EC05F055
:10091000000E43EC05F00C0E43EC05F0000E43EC2A
:1009200005F0060E43EC05F01200046E0404D8A492
:100930009CEF04F09EEF04F0ADEF04F003507F0F46
:10094000076E07380F0B066E07500F0B056E06502B
:1009500043EC05F0055043EC05F0020E0418D8A452
:10096000B4EF04F0B6EF04F0C5EF04F00350BF0F8E
:10097000076E07380F0B066E07500F0B056E0650FB
:1009800043EC05F0055043EC05F01200016E01A0A8
:10099000CCEF04F0CEEF04F0D1EF04F08180D2EF81
:1009A00004F0819001A2D7EF04F0D9EF04F0DCEF5E
:1009B00004F08182DDEF04F0819201A4E2EF04F003
:1009C000E4EF04F0E7EF04F08184E8EF04F08194B1
:1009D00001A6EDEF04F0EFEF04F0F2EF04F08186F2
:1009E000F3EF04F081961200000E0A6E000E096EFD
:1009F0000AEF05F009500524076E0A500620086E1C
:100A000007C0F6FF08C0F7FF0800F5501FEC05F01F
:100A1000094A0A2A09500524076E0A500620086E62
:100A200007C0F6FF08C0F7FF0800F5500009D8A47A
:100A30001CEF05F01EEF05F0FAEF04F01200046E53
:100A400004500F0B026E0450F00B036E818A0338C2
:100A50000F0BC6EC04F08188A60EE82EFED700D05E
:100A60008198A60EE82EFED700D00250C6EC04F006
:100A70008188A60EE82EFED700D08198A60EE82E1B
:100A8000FED700D01200026E819A0250C6EC04F02C
:100A90008188A60EE82EFED700D081981200000EA5
:100AA000F86E080EF76E00010FEF04F0000E43EC35
:0A0AB00005F0010E43EC05F0120002
:020000040020DA
:08000000FFFFFFFFFFFFFFFF00
:020000040030CA
:0E000000018C191EFF8181FF0FC00FE00F4021
:00000001FF
