:0400000007EF00F016
:100008000B825EED00F079EF00F0000E956E9380A4
:10001800F288F19CF292D09EF28CF28E010E8C6ED8
:10002800010E076EF40E066E26EC00F0000E8C6EC4
:10003800010E076EF40E066E26EC00F012EF00F0CB
:1000480007EF00F0000E0A6E000E096E32EF00F0A6
:10005800C80E00D0E82EFDD7094A0A2A0650095CC6
:100068000A50800A086E0750800A0858D8A03FEF47
:1000780000F041EF00F02CEF00F01200000E056ECA
:10008800000E046E4EEF00F0C80E00D0E82EFDD72B
:10009800044A052A0150045C0550800A036E025088
:1000A800800A0358D8A05BEF00F05DEF00F048EF3E
:1000B80000F012000600F2A264EF00F066EF00F014
:1000C80077EF00F0F292020E8C6E010E026EF40EC3
:1000D800016E42EC00F0000E8C6E010E026EF40E02
:1000E800016E42EC00F00B9211000B900B92000194
:0400F80009EF00F01C
:020000040020DA
:08000000FFFFFFFFFFFFFFFF00
:020000040030CA
:0E000000000C181EFF8185FF0FC00FE00F409F
:00000001FF
