:040000002EEF06F0E9
:100800000054454D50000000280E82EC04F0E4EC4A
:1008100005F00009D8A4FBD7060EC5EC05F00C0EB8
:10082000C5EC05F0000E956E000E836E040E016E91
:100830000E0E026EED0E4EEC05F0050E4EEC06F0BF
:100840006BEC06F05DEC06F00009D8A4FBD756EC83
:1008500006F001C013F002C014F013C001F014C080
:1008600002F0000E046E050E036E1BEC06F001C0D4
:1008700007F002C008F0030E0A6E0968D4EC04F019
:1008800007C013F008C014F013C001F014C002F048
:10089000000E046E0A0E036E16EC05F001C015F092
:1008A00002C016F015C00FF016C010F00F1E101E7B
:1008B0000F4A102A13500F24076E14501020086E90
:1008C000000E0A6E0A0E096ED4EC04F007C011F097
:1008D00008C012F0000E7DEC05F0010E036E080E4C
:1008E000046E01EC06F0400E7DEC05F01150300F67
:1008F000A6EC05F0410E7DEC05F01550300FA6EC8E
:1009000005F09ED7066EF00E8116F00E9316939C9E
:10091000939A93988A9C8A9A8A9863EC06F0300E90
:10092000C5EC05F0050E3BEC06F0300EC5EC05F00D
:10093000010E3BEC06F0320EC5EC05F0E4EC05F0E0
:100940000009D8A4FBD7E4EC05F00009D8A4FBD734
:100950000650C5EC05F0E4EC05F00009D8A4FBD77F
:10096000080EC5EC05F0E4EC05F00009D8A4FBD7AF
:100970000F0EC5EC05F0E4EC05F00009D8A4FBD798
:10098000010EC5EC05F0E4EC05F00009D8A4FBD796
:10099000040EC5EC05F0E4EC05F00009D8A4FBD783
:1009A000800E7DEC05F01200000E0C6E0AAE06D033
:1009B000096C0A1ED8B00A2A010E0C6E08AE06D0C9
:1009C000076C081ED8B0082A010E0C1A000E0E6E15
:1009D000000E0D6E09500A10D8B41CD0010E0B6E1B
:1009E00004D0D89009360A360B2A0AAEFAD7D89026
:1009F0000D360E360950075C0A500858D8A005D0AD
:100A00000950075E0A50085A0D80D8900A32093200
:100A10000B2EEDD70C50D8B404D00D6C0E1ED8B0F0
:100A20000E2A0DC007F00EC008F01200000E066E70
:100A300002AE06D0016C021ED8B0022A010E066E6C
:100A400004AE04D0036C041ED8B0042A0350041072
:100A5000D8B418D0010E056E04D0D89003360436F1
:100A6000052A04AEFAD70350015C04500258D8A0FE
:100A700004D00350015E0450025AD890043203326D
:100A8000052EF1D70650D8B404D0016C021ED8B0A0
:100A9000022A01C001F002C002F01200056E000E31
:100AA000C26E000EC06ED89001303C0BC26E01C009
:100AB00003F0033AF00E0316300E031602500F0B2C
:100AC0000310C16E05C003F0D8900336D8900336EA
:100AD000380E031605C004F0043A0F0E0416070E74
:100AE00004160550800B04100310C06E01AE03D035
:100AF0009E9C9D8CF28CC2801200056EF00E9316A7
:100B0000F00E81160550026E036A028E040E046E0A
:100B1000033403320232042EFBD702500F0B811232
:100B20008A9C8A9A67EC06F08A8867EC06F08A98B5
:100B3000F00E811605500F0B811267EC06F08A88C3
:100B400067EC06F08A980F0E93121200026EF00EF8
:100B50009316F00E811602380F0B0F0B81128A8A42
:100B60008A9C67EC06F08A8867EC06F08A98F00E9B
:100B7000811602500F0B811267EC06F08A8867EC31
:100B800006F08A980F0E93121200026EF00E931662
:100B9000F00E811602380F0B0F0B81128A9C8A9A75
:100BA00067EC06F08A8867EC06F08A98F00E8116EA
:100BB00002500F0B811267EC06F08A8867EC06F092
:100BC0008A980F0E931212008A8C8A9A67EC06F0AC
:100BD0008A8867EC06F081A60AD08A9867EC06F04E
:100BE0008A8867EC06F08A988A9C010E12008A981F
:100BF00067EC06F08A8867EC06F08A988A9C000EFB
:100C000012000FD0E4EC05F00009D8A4FBD703C014
:100C1000F6FF04C0F7FF0800F550A6EC05F0034A04
:100C2000042A03C0F6FF04C0F7FF0800F5500009CE
:100C3000D8B41200E7D701500302F3CF05F0F4CF88
:100C400006F001500402F350062602500302F3504E
:100C5000062605C001F006C002F01200166A156AE9
:100C6000146A136A126A116A000EF86E080EF76EA3
:100C7000000104EF04F0026E0D0E016EFC0EE82E72
:100C8000FED7012EFCD7022EF7D71200016EFA0E06
:100C900000F0E82EFDD7012EFAD71200016E030EE8
:100CA000E82EFED700F0012EFAD71200C450036ED2
:100CB000C350016E03C002F01200C2A202D0010EA6
:100CC0001200000E12004B0E46EC06F01200780ED9
:0A0CD0004EEC06F01200C282120082
:020000040020DA
:08000000FFFFFFFFFFFFFFFF00
:020000040030CA
:0E00000000051F1FFF8385FF0FC00FE00F409C
:00000001FF
