:0400000072EF08F0A3
:1008000000436F6E74726F6C2064652054454D50C8
:100810000000280EA6EC07F058EC09F00009D8A457
:10082000FBD7060E1CEC09F00C0E1CEC09F0050EB3
:10083000DEEC09F0040E016E0E0E026EED0EA5EC5C
:1008400008F0000E946EFE0E386E3850B4EC09F0CD
:10085000680ECDEC09F0000E026E000E016E3BEC4E
:1008600009F05DC01BF05EC01CF05FC01DF04EC003
:1008700018F04FC019F050C01AF0DCEC06F018C0A8
:100880002DF019C02EF01AC02FF0000E0C6E000EC5
:100890000D6E400E0E6E51C009F052C00AF053C0EA
:1008A0000BF062EC06F009C01BF00AC01CF00BC094
:1008B0001DF05DC018F05EC019F05FC01AF0DCECEE
:1008C00006F018C02AF019C02BF01AC02CF08CECDE
:1008D00005F02AC039F02BC03AF02CC03BF0000ED6
:1008E0002D6E800E2E6E3F0E2F6E39C02AF03AC04C
:1008F0002BF03BC02CF08CEC05F02AC009F02BC08B
:100900000AF02CC00BF042C00CF043C00DF044C004
:100910000EF062EC06F009C045F00AC046F00BC0CC
:1009200047F0000E0C6E000E0D6E400E0E6E51C0A4
:1009300009F052C00AF053C00BF062EC06F009C097
:100940001BF00AC01CF00BC01DF05DC018F05EC0AB
:1009500019F05FC01AF0DCEC06F018C027F019C0DF
:1009600028F01AC029F0A2EC09F027C02DF028C009
:100970002EF029C02FF05DC01BF05EC01CF05FC0E0
:100980001DF0000E0C6E000E0D6E400E0E6E4EC071
:1009900009F04FC00AF050C00BF062EC06F009C03D
:1009A00018F00AC019F00BC01AF0DCEC06F018C001
:1009B0002AF019C02BF01AC02CF08CEC05F02AC0DC
:1009C00039F02BC03AF02CC03BF0000E2D6E800E9B
:1009D0002E6E3F0E2F6E39C02AF03AC02BF03BC06E
:1009E0002CF08CEC05F02AC009F02BC00AF02CC0CA
:1009F0000BF042C027F043C028F044C029F0A2EC1D
:100A000009F027C00CF028C00DF029C00EF062ECF0
:100A100006F009C048F00AC049F00BC04AF04EC0C9
:100A20000CF04FC00DF050C00EF042C009F043C0B2
:100A30000AF044C00BF062EC06F009C018F00AC0DE
:100A400019F00BC01AF05DC01BF05EC01CF05FC057
:100A50001DF0DCEC06F018C04BF019C04CF01AC0C9
:100A60004DF003EC0AF0EDEC09F00009D8A4FBD737
:100A7000E6EC09F001C056F002C057F056C001F094
:100A800057C002F0000E046E050E036E8FEC09F0E5
:100A900001C007F002C008F0030E0A6E0968F8EC06
:100AA00007F007C056F008C057F056C001F057C015
:100AB00002F0000E046E0A0E036E3AEC08F001C05C
:100AC00058F002C059F058C036F059C037F0361E01
:100AD000371E364A372A56503624076E575037206D
:100AE000086E000E0A6E0A0E096EF8EC07F007C0D9
:100AF00054F008C055F0000ED4EC08F0010E036E5F
:100B0000080E046E75EC09F0400ED4EC08F0585055
:100B1000300FFDEC08F0A5D72CC030F0316A326AF6
:100B20002B34303601E331803050356E2FC030F039
:100B3000316A326A2E34303601E331803050346EFF
:100B40003550D8B40BD03450355CD8B00ED03550B9
:100B500000083424306E180E306407D02DC02AF0FF
:100B60002EC02BF02FC02CF012003450D8B40BD074
:100B70003550345CD8B00ED0345000083524306E77
:100B8000180E306407D02AC02AF02BC02BF02CC0DE
:100B90002CF01200060E336E2CBE338E2FBE338C1B
:100BA0002B8EFF0E2A16FF0E2B16000E2C162E8EE5
:100BB000FF0E2D16FF0E2E16000E2F163450355C2C
:100BC000D8B01BD0D8902D362E362F36340635505F
:100BD0003418D8B40DD0330633C030F0070E3016B9
:100BE000D8B406D0EFD7D8902C322B322A32352AFF
:100BF00034503518D8B41FD0F6D73550345CD8B03F
:100C00001AD0D8902A362B362C3635063550341863
:100C1000D8B40DD0330633C030F0070E3016D8B438
:100C200006D0EFD7D8902F322E322D32342A3450BE
:100C30003518D8A4F7D733AE0CD0FF0E2A1AFF0E02
:100C40002B1AFF0E2C1A010E2A26000E2B22000E44
:100C50002C2233AC0CD0FF0E2D1AFF0E2E1AFF0ED5
:100C60002F1A010E2D26000E2E22000E2F22000E0E
:100C7000336E2A502D262B502E222C502F222FAE91
:100C80000ED0FF0E2D1AFF0E2E1AFF0E2F1A010E78
:100C90002D26000E2E22000E2F22010E336E2DC0A7
:100CA00001F02EC002F02FC003F035C004F033C0B5
:100CB00005F04FEC07F001C02AF002C02BF003C092
:100CC0002CF012000BC00FF0106A116A0A340F36B4
:100CD00001E310800F50126E1250D8A407D0000EFE
:100CE000096E000E0A6E000E0B6E12000EC00FF0A1
:100CF000106A116A0D340F3601E310800F50176E21
:100D00001750D8A407D0000E096E000E0A6E000E10
:100D10000B6E120017507B0F12260BC017F00E50EF
:100D2000171A800E17160A8E0D8EFF0E0C16FF0E68
:100D30000D16000E0E16000E136E000E146E000E31
:100D4000156E070E166E09A006D00C5013260D5016
:100D500014220E501522D8900B320A320932D89044
:100D60000C360D360E36162EEED7090E166E09A06D
:100D700006D00C5013260D5014220E501522D89078
:100D80000B320A320932D890153214321332162E31
:100D9000EED713C001F014C002F015C003F012C06A
:100DA00004F017C005F04FEC07F001C009F002C0D5
:100DB0000AF003C00BF012001AC01EF01F6A206A6E
:100DC00019341E3601E31F801E50256E2550D8A40D
:100DD00007D0000E186E000E196E000E1A6E12006B
:100DE0001DC01EF01F6A206A1C341E3601E31F80DE
:100DF0001E50266E2650D8A407D0000E186E000E86
:100E0000196E000E1A6E1200000E226E000E236E76
:100E1000000E246E2650890F255E1AC026F01D5044
:100E2000261A800E2616198EFF0E1816FF0E19169A
:100E3000000E1A161C8EFF0E1B16FF0E1C16000E3F
:100E40001D16180E216ED8902236233624361B50DC
:100E5000185C1C5019581D501A58D8A007D01B50A8
:100E6000185E1C50195A1D501A5A2280D8901836F4
:100E700019361A36212EE7D722C001F023C002F01E
:100E800024C003F025C004F026C005F04FEC07F0A5
:100E900001C018F002C019F003C01AF0120004508B
:100EA000D8B405D0015002100310D8A40CD0000E05
:100EB000016E000E026E000E036E1200042AD8901E
:100EC000033202320132000E0114066E000E0214CB
:100ED000076EFE0E0314086E065007100810D8B4F3
:100EE0000CD0ECD7042A010E0126000E0222000EBF
:100EF0000322D890033202320132000E0114066E32
:100F0000000E0214076EFF0E0314086E0650071041
:100F10000810D8B406D0E6D70406D89001360236B9
:100F2000033602BE03D0020E0460F6D704A0029E70
:100F3000D8900432045003120550D8A4038E01C087
:100F400001F002C002F003C003F01200066EF00EC2
:100F50008116F00E9316939C939A93988A9C8A9A82
:100F60008A98F8EC09F0300E1CEC09F0050EC2EC82
:100F700009F0300E1CEC09F0010EC2EC09F0320E43
:100F80001CEC09F058EC09F00009D8A4FBD758EC88
:100F900009F00009D8A4FBD706501CEC09F058EC66
:100FA00009F00009D8A4FBD7080E1CEC09F058EC96
:100FB00009F00009D8A4FBD70F0E1CEC09F058EC7F
:100FC00009F00009D8A4FBD7010E1CEC09F058EC7D
:100FD00009F00009D8A4FBD7040E1CEC09F058EC6A
:100FE00009F00009D8A4FBD7800ED4EC08F0120059
:100FF000000E0C6E0AAE06D0096C0A1ED8B00A2A82
:10100000010E0C6E08AE06D0076C081ED8B0082A78
:10101000010E0C1A000E0E6E000E0D6E09500A1015
:10102000D8B41CD0010E0B6E04D0D89009360A3605
:101030000B2A0AAEFAD7D8900D360E360950075C47
:101040000A500858D8A005D00950075E0A50085A1F
:101050000D80D8900A3209320B2EEDD70C50D8B43F
:1010600004D00D6C0E1ED8B00E2A0DC007F00EC0B5
:1010700008F01200000E066E02AE06D0016C021ED1
:10108000D8B0022A010E066E04AE04D0036C041E12
:10109000D8B0042A03500410D8B418D0010E056E3D
:1010A00004D0D89003360436052A04AEFAD703508C
:1010B000015C04500258D8A004D00350015E0450D3
:1010C000025AD89004320332052EF1D70650D8B414
:1010D00004D0016C021ED8B0022A01C001F002C087
:1010E00002F0120000EE60F0090EEE6AE806FDE183
:1010F00000EE3CF01E0EEE6AE806FDE1E60EF66E2E
:10110000130EF76E000EF86E00EE69F010EE09F0A7
:101110000900F5CFEEFFE550E150FAE1000EF66E62
:10112000140EF76E000EF86E00EE5AF010EE06F098
:101130000900F5CFEEFFE550E150FAE1000EF86E40
:10114000080EF76E000109EF04F0056E000EC26E86
:10115000000EC06ED89001303C0BC26E01C003F08F
:10116000033AF00E0316300E031602500F0B031055
:10117000C16E05C003F0D8900336D8900336380E00
:10118000031605C004F0043A0F0E0416070E0416E9
:101190000550800B04100310C06E01AE03D09E9C5E
:1011A0009D8CF28CC2801200056EF00E9316F00E2C
:1011B00081160550026E036A028E040E046E03341B
:1011C00003320232042EFBD702500F0B81128A9C8D
:1011D0008A9AFCEC09F08A88FCEC09F08A98F00EF7
:1011E000811605500F0B8112FCEC09F08A88FCEC8B
:1011F00009F08A980F0E93121200026EF00E9316E9
:10120000F00E811602380F0B0F0B81128A8A8A9C0E
:10121000FCEC09F08A88FCEC09F08A98F00E811643
:1012200002500F0B8112FCEC09F08A88FCEC09F0EB
:101230008A980F0E93121200026EF00E9316F00EA3
:10124000811602380F0B0F0B81128A9C8A9AFCECD4
:1012500009F08A88FCEC09F08A98F00E8116025099
:101260000F0B8112FCEC09F08A88FCEC09F08A98DB
:101270000F0E9312120001C003F002C004F0060E1C
:10128000D89003360436E82EFBD703C005F004C01F
:1012900006F006C0BEFF05C003F0D8900332D89018
:1012A0000332300E0316BD50CF0B0310BD6E12007B
:1012B0008A8C8A9AFCEC09F08A88FCEC09F081A6F9
:1012C0000AD08A98FCEC09F08A88FCEC09F08A982C
:1012D0008A9C010E12008A98FCEC09F08A88FCECCA
:1012E00009F08A988A9C000E12000FD058EC09F081
:1012F0000009D8A4FBD703C0F6FF04C0F7FF08001D
:10130000F550FDEC08F0034A042A03C0F6FF04C0C0
:10131000F7FF0800F5500009D8B41200E7D70150D4
:101320000302F3CF05F0F4CF06F001500402F350AE
:10133000062602500302F350062605C001F006C03F
:1013400002F01200275028102910D8B406D0000E41
:10135000271A000E281A800E291A27C027F028C045
:1013600028F029C029F01200016E0150FB0BCA6E53
:10137000000ECC6E9E9201AE02D09D8201D09D9255
:10138000CA841200026E0D0E016EFC0EE82EFED70E
:10139000012EFCD7022EF7D71200016E0C0EBD12E3
:1013A0009494CA9401C0CBFFCA841200016EFA0E55
:1013B00000F0E82EFDD7012EFAD71200016E030EC1
:1013C000E82EFED700F0012EFAD71200C450036EAB
:1013D000C350016E03C002F01200C2A202D0010E7F
:1013E0001200000E1200F6083F00204100803F006E
:1013F0004B0ED6EC09F01200780EDEEC09F012006C
:0A14000080BB4400003FC2821200CE
:020000040020DA
:08000000FFFFFFFFFFFFFFFF00
:020000040030CA
:0E00000000051F1FFF8385FF0FC00FE00F409C
:00000001FF
