:040000000BEF00F012
:100008001082FACF01F0FBCF02F00DED00F05AEFAD
:1000180000F00600E9CF03F0EACF04F0E1CF05F0E5
:10002800E2CF06F0D9CF07F0DACF08F0F3CF09F026
:10003800F4CF0AF0F6CF0BF0F7CF0CF0F8CF0DF0B5
:10004800F5CF0EF0F2A20AD0F2920F2A100E0F1876
:10005800D8A402D0000E0F6E0FC08CFF0EC0F5FFA3
:100068000DC0F8FF0CC0F7FF0BC0F6FF0AC0F4FF85
:1000780009C0F3FF08C0DAFF07C0D9FF06C0E2FFD6
:1000880005C0E1FF04C0EAFF03C0E9FF02C0FBFFAF
:1000980001C0FAFF10921100000E956E9380F2884D
:1000A800F19CF292D09EF28CF28EFFD70F6A1090DC
:0800B8001092000150EF00F06E
:020000040020DA
:08000000FFFFFFFFFFFFFFFF00
:020000040030CA
:0E000000000C181EFF0181FF0FC00FE00F4023
:00000001FF
