:04000000E9EF05F02F
:1008000000436F72726563746F000000280ECAECBB
:1008100004F083EC05F00009D8A4FBD7060E64ECC5
:1008200005F00C0E64EC05F0000E936EF00E956E64
:100830009290370E016E000EBAEC05F0000EF0EC4F
:1008400005F0086E8C808C928C948C9683A805D0D1
:10085000370E45EC05F0370E096E83AA03D0380E2B
:1008600045EC05F083AC03D0390E45EC05F083AEC2
:1008700003D02F0E45EC05F0410E076EEE0EE82E6C
:10088000FED7072EFCD700D08C908C828C948C964F
:10089000410E076EEE0EE82EFED7072EFCD700D0D5
:1008A00083A803D0340E45EC05F083AA03D0350E9F
:1008B00045EC05F083AC03D0360E45EC05F083AE75
:1008C00003D0580E45EC05F0410E076EEE0EE82EF3
:1008D000FED7072EFCD700D08C908C928C848C96FF
:1008E000410E076EEE0EE82EFED7072EFCD700D085
:1008F00083A803D0310E45EC05F083AA03D0320E55
:1009000045EC05F083AC03D0330E45EC05F083AE27
:1009100003D02D0E45EC05F0410E076EEE0EE82ECD
:10092000FED7072EFCD700D08C908C928C948C86AE
:10093000410E076EEE0EE82EFED7072EFCD700D034
:1009400083A803D04F0E45EC05F083AA03D0300EE8
:1009500045EC05F083AC03D03D0E45EC05F083AECD
:1009600003D02B0E45EC05F0410E076EEE0EE82E7F
:10097000FED7072EFCD700D009500818D8A462D79C
:10098000000E1CEC05F0010E036E080E046EA0ECC8
:1009900005F058D7066EF00E8116F00E9316939C54
:1009A000939A93988A9C8A9A8A98F7EC05F0300E6D
:1009B00064EC05F0050ECEEC05F0300E64EC05F0AD
:1009C000010ECEEC05F0320E64EC05F083EC05F080
:1009D0000009D8A4FBD783EC05F00009D8A4FBD705
:1009E000065064EC05F083EC05F00009D8A4FBD7B1
:1009F000080E64EC05F083EC05F00009D8A4FBD7E1
:100A00000F0E64EC05F083EC05F00009D8A4FBD7C9
:100A1000010E64EC05F083EC05F00009D8A4FBD7C7
:100A2000040E64EC05F083EC05F00009D8A4FBD7B4
:100A3000800E1CEC05F01200056EF00E9316F00E01
:100A400081160550026E036A028E040E046E033492
:100A500003320232042EFBD702500F0B81128A9C04
:100A60008A9AFBEC05F08A88FBEC05F08A98F00E78
:100A7000811605500F0B8112FBEC05F08A88FBEC08
:100A800005F08A980F0E93121200026EF00E931664
:100A9000F00E811602380F0B0F0B81128A8A8A9C86
:100AA000FBEC05F08A88FBEC05F08A98F00E8116C5
:100AB00002500F0B8112FBEC05F08A88FBEC05F06D
:100AC0008A980F0E93121200026EF00E9316F00E1B
:100AD000811602380F0B0F0B81128A9C8A9AFBEC4D
:100AE00005F08A88FBEC05F08A98F00E811602501A
:100AF0000F0B8112FBEC05F08A88FBEC05F08A985D
:100B00000F0E931212008A8C8A9AFBEC05F08A88E9
:100B1000FBEC05F081A60AD08A98FBEC05F08A88E8
:100B2000FBEC05F08A988A9C010E12008A98FBEC77
:100B300005F08A88FBEC05F08A988A9C000E12006A
:100B40000FD083EC05F00009D8A4FBD703C0F6FF53
:100B500004C0F7FF0800F55045EC05F0034A042AED
:100B600003C0F6FF04C0F7FF0800F5500009D8B431
:100B70001200E7D7026EA6B2FED702C0A9FF01C0DD
:100B8000A8FFA69EA684F29E550EA76EAA0EA76E7B
:100B9000A682F28EA694A6A21200FDD7026E0D0EBA
:100BA000016EFC0EE82EFED7012EFCD7022EF7D7E1
:100BB0001200016EFA0E00F0E82EFDD7012EFAD7D2
:100BC0001200016E030EE82EFED700F0012EFAD7B8
:100BD0001200000EF86E080EF76E000106EF04F02A
:100BE000016E01C0A9FFA69EA680A85012004B0E60
:0E0BF000D9EC05F01200780EE1EC05F01200D1
:020000040020DA
:08000000FFFFFFFFFFFFFFFF00
:020000040030CA
:0E000000240E191EFF8181FF0FC00FE00F407C
:00000001FF
