:04000000B6EF3EF029
:107D240001000000000000003700000034000000E3
:107D3400310000006F000000380000003500000032
:107D4400320000003000000039000000360000005E
:107D5400330000003D0000002F0000007800000008
:107D64002D0000002B0000002C0EF66E7D0EF76E29
:107D7400000EF86E00EE60F010EE40F00900F5CF52
:107D8400EEFFE550E150FAE1240EF66E7D0EF76E3B
:107D9400000EF86E00EE54F010EE08F00900F5CF76
:107DA400EEFFE550E150FAE10001D9EF3EF03F0E5D
:107DB400C16E0F0E956E000E516E010E506E000EC8
:107DC4004D6E000E4C6E000E536E000E526E000E81
:107DD4004F6E640E4E6E000E436E400E426E949CC7
:107DE400AC9CAC8AAC98AC94B896AB8E20EE54F0B4
:107DF40010EE44F0070EDBCFE3FFE806FCE220EED2
:107E040060F010EE02F03F0EDBCFE3FFE806FCE289
:107E140044B002D0839801D0838846B002D0839ABC
:107E240001D0838A48B002D0839C01D0838C4AB0AD
:107E340002D0839E01D0838E820E016EDE0EE82E68
:107E4400FED7012EFCD723D0ACA2FED7410EAD6ED7
:107E5400410E016EEE0EE82EFED7012EFCD700D0A7
:107E64000AD0410E016EEE0EE82EFED7012EFCD78D
:107E740000D0524A532A4E50525C5350800A016E2D
:107E84004F50800A0158D8A083A201D0EAD783A01A
:107E940024D0DAD7ACA2FED7410EAD6E410E016EEE
:107EA400EE0EE82EFED7012EFCD700D00AD0410EEC
:107EB400016EEE0EE82EFED7012EFCD700D0524AFA
:107EC400532A4E50525C5350800A016E4F50800A20
:107ED4000158D8A083A201D0EAD783A224D0DAD74C
:107EE400ACA2FED7410EAD6E410E016EEE0EE82E31
:107EF400FED7012EFCD700D00AD0410E016EEE0E43
:107F0400E82EFED7012EFCD700D0524A532A4E50F9
:107F1400525C5350800A016E4F50800A0158D8A019
:107F240083A201D0EAD783A424D0DAD7ACA2FED7A7
:107F3400410EAD6E410E016EEE0EE82EFED7012EFF
:107F4400FCD700D00AD0410E016EEE0EE82EFED70B
:107F5400012EFCD700D0524A532A4E50525C535043
:107F6400800A016E4F50800A0158D8A083A201D024
:107F7400EAD783B6DBD751BE06D0515018E1030EC1
:107F8400505CD8B014D050C04CF051C04DF0D890D3
:107F94004C34D96E4D34DA6E440ED926000EDA22F2
:107FA400000EDE6E000EDD6E504A512A15D0000E12
:107FB4004D6E000E4C6ED8904C34D96E4D34DA6E42
:107FC400440ED926000EDA22000EDE6E000EDD6E9F
:107FD400000E516E000E506ED8905034D96E51344C
:107FE400DA6E440ED926000EDA22010EDE6E000E81
:0C7FF400DD6E000E536E000E526E0AD7B8
:020000040020DA
:08000000FFFFFFFFFFFFFFFF00
:020000040030CA
:0E000000240E191EFF8181FF0FC00FE00F407C
:00000001FF
